:020000040800F2
:10140000C02A0020C91500081F330008A5310008B4
:101410001D330008D9170008074F0008000000001E
:10142000000000000000000000000000B5370008C8
:101430006118000800000000C7360008B737000830
:10144000E3150008E3150008E3150008E31500089C
:10145000E3150008E3150008E3150008E31500088C
:10146000E3150008E3150008E3150008E31500087C
:10147000E3150008E3150008E3150008E31500086C
:10148000E3150008E3150008E3150008E31500085C
:10149000914E0008E3150008E3150008E315000865
:1014A000E3150008E3150008E3150008E31500083C
:1014B000E3150008E3150008E3150008E31500082C
:1014C000E3150008E3150008E3150008E31500081C
:1014D000E3150008E3150008E3150008E31500080C
:1014E000E3150008E3150008E315000800F002F812
:1014F00000F05AF80AA090E8000C82448344AAF154
:101500000107DA4501D100F04FF8AFF2090EBAE851
:101510000F0013F0010F18BFFB1A43F00103184727
:10152000C8430000E84300000A444FF0000C10F8E4
:10153000013B13F0070408BF10F8014B1D1108BF51
:1015400010F8015B641E05D010F8016B641E01F8F1
:10155000016BF9D113F0080F1EBF10F8014BAD1C41
:101560000C1B09D16D1E58BF01F801CBFAD505E05F
:1015700014F8016B01F8016B6D1EF9D59142D6D3B9
:10158000704700000023002400250026103A28BFE1
:1015900078C1FBD8520728BF30C148BF0B607047E5
:1015A0001FB51FBD10B510BD00F0E4F81146FFF7E0
:1015B000F7FF03F007FE00F002F903B4FFF7F2FFB4
:1015C00003BC03F0B1FC000009488047094800470C
:1015D000FEE7FEE7FEE7FEE7FEE7FEE7FEE7FEE7E3
:1015E000FEE7FEE704480549054A064B7047000040
:1015F00031380008ED140008C0240020C02A002063
:10160000C0260020C02600207047B2F120030AD572
:10161000C2F1200320FA02F001FA03F321FA02F1E9
:1016200040EA0300704721FA03F04FF000017047D1
:10163000032A40F2308010F0030C00F0158011F8FE
:10164000013BBCF1020F624498BF11F801CB00F8D6
:10165000013B38BF11F8013BA2F1040298BF00F82A
:1016600001CB38BF00F8013B11F0030300F02580E7
:10167000083AC0F0088051F8043B083A51F804CB0E
:10168000A0E80810F5E7121D5CBF51F8043B40F8D4
:10169000043BAFF30080D20724BF11F8013B11F8DF
:1016A00001CB48BF11F8012B24BF00F8013B00F823
:1016B00001CB48BF00F8012B704710B5203AC0F0AD
:1016C0000B80B1E81850203AA0E81850B1E8185043
:1016D000A0E81850BFF4F5AF5FEA027C24BFB1E880
:1016E0001850A0E8185044BF18C918C0BDE81040F1
:1016F0005FEA827C24BF51F8043B40F8043B08BFFA
:101700007047D20728BF31F8023B48BF11F8012BC0
:1017100028BF20F8023B48BF00F8012B70474FF06C
:10172000000200B5134694469646203922BFA0E831
:101730000C50A0E80C50B1F12001BFF4F7AF09073D
:1017400028BFA0E80C5048BF0CC05DF804EB89002E
:1017500028BF40F8042B08BF704748BF20F8022B71
:1017600011F0804F18BF00F8012B70477047704789
:1017700070477047754600F02BF8AE460500694685
:10178000534620F00700854618B020B5FFF72AFF22
:10179000BDE820404FF000064FF000074FF0000872
:1017A0004FF0000B21F00701AC46ACE8C009ACE8F3
:1017B000C009ACE8C009ACE8C0098D46704710B557
:1017C0000446AFF300802046BDE81040FFF7F5BEA9
:1017D0000048704760240020FEE70020704700208A
:1017E0007047000010B500220449054802F014F9C2
:1017F0000449034802F00AF9002010BD441B0020F0
:10180000801200204417002010B5044608882146A5
:1018100082B2064803F0F9FB2146054802F0F6F8CB
:10182000034802F0D7F8002010BD0000A8010020F6
:1018300080120020094A10B5D2F8B822D2F814223A
:101840000AB1012010BD0A460146044802F0E4F83E
:10185000BDE81040014802F03DB9000080120020B0
:10186000704772B6FEE7000006490020C8610648CE
:10187000016941F004010161016941F04001016128
:10188000704700004024002000200240064A00214A
:10189000D16106490A6942F002020A614861086999
:1018A00040F04000086170474024002000200240C2
:1018B000044B0022DA61044A136943F00103136107
:1018C000018070474024002000200240144800227C
:1018D000C168CB06134904D5CA6942F00202CA6145
:1018E0001022C3685B0705D5CB6943F00103CB61C8
:1018F00042F00402C369DB0707D0CB6943F004035D
:10190000CB61C16921F00101C161A2F5807101398A
:1019100001D0C2607047C16921F00101C161704707
:10192000002002404024002070B5054600F05AFA1D
:101930000646114C09E0681C07D025B100F052FAA8
:10194000801BA84201D9032070BDE068C007F2D116
:10195000E068800601D52020E060E068C00605D47C
:10196000E069C00702D1E068400703D5FFF7AEFF8A
:10197000012070BD002070BD002002402DE9F0471D
:10198000054626480F460126017E01290FD0012178
:10199000814601762868DFF888804CF250340228AE
:1019A00008D0A2462046FFF7BFFFA8B131E00220D1
:1019B000BDE8F0872046FFF7B7FF08BB0120FFF71F
:1019C00053FF2046FFF7B0FFD8F81010064621F06D
:1019D0000401C8F810101CE04FF0FF303860AC680C
:1019E00011E02046FFF752FF5046FFF79DFFD8F861
:1019F0001010060021F00201C8F8101001D03C6060
:101A000007E004F58064D5E9020100EB8120A042E3
:101A1000E7D8002189F818103046C9E74024002093
:101A2000002002400348016941F08001016100206B
:101A300070470000002002402DE9F05F07461C4877
:101A400088460024017E15461E46012909D0012141
:101A5000814601764CF2503A5046FFF765FF18B1C7
:101A600022E00220BDE8F09F012F02D0022F00D01B
:101A70000427D346DFF83CA0220128463146FFF771
:101A8000C4FD81B208EB4400FFF712FF5846FFF790
:101A90004BFFDAF8102022F00102CAF8102018B922
:101AA000641CE4B2BC42E7D3002289F81820D9E7CD
:101AB0004024002000200240064900200A69120646
:101AC00007D5054A4A60054A4A600969090600D5F2
:101AD000012070470020024023016745AB89EFCD0C
:101AE0002DE9F04300233E4F0F2573E001229A4079
:101AF0000A406DD023F00304E619D6F808809C074D
:101B00004FEA147C05FA0CF909EA0804DFF8D480DE
:101B1000404502D14FF0000816E0DFF8CC80404588
:101B200002D14FF001080FE0DFF8C080404502D13C
:101B30004FF0020808E0DFF8B880404502D14FF0CE
:101B4000030801E04FF0040808FA0CF8A04522D180
:101B5000284CD4F800C02CEA020CC4F800C0241DA4
:101B6000D4F800C02CEA020CC4F800C0214C0C349C
:101B7000D4F800C02CEA020CC4F800C0241FD4F82A
:101B800000C02CEA020CC4F800C0D6F808C02CEA49
:101B9000090CC6F808C0FF2A01D8064601E000F18A
:101BA00004064FEA830401D9A4F12004D6F800C04A
:101BB00005FA04F82CEA080C4FF0040808FA04F8B7
:101BC0004CEA080CC6F800C0C46824EA0204C460E9
:101BD00003F1010331FA03F288D1BDE8F08300007C
:101BE0000000014000080140000C014000100140CD
:101BF00000140140000401402DE9F84FDFF8B891CE
:101C00000024A9F1040B23460F2709F1040AABF1C4
:101C1000040EC9E00125A5402A40AA427DD1674EA5
:101C2000D1F804C0ACEB0608B44532D014DCBCF1EA
:101C3000030F3AD009DCBCF1000F2AD0BCF1010F30
:101C40001CD0BCF1020F31D11DE0BCF1110F17D037
:101C5000BCF1120F2AD119E0B8F5881F19D006DCA3
:101C6000B8F5803F15D0B8F5801F1FD111E0B8F549
:101C7000001F0ED0B8F5041F18D10AE0CB6815E09C
:101C8000CB681B1D12E0CB6808330FE0CB680C3328
:101C90000CE08B682BB1012B4FF0080303D045619A
:101CA00004E0042302E0056100E00023FF2A01D8DC
:101CB000064601E000F104064FEA840501D9A5F1CA
:101CC0002005D6F8008007FA05FC28EA0C0803FA7C
:101CD00005F548EA0508C6F800804D68ED0062D5B4
:101CE000374DAE6946F00106AE61AD6924F00306DA
:101CF00005F001050095334D06EB050CDCF80850A6
:101D0000A607360F07FA06F825EA0805DFF8B880B7
:101D1000404503D14FF0000817E044E0DFF8AC8005
:101D2000404502D14FF001080FE0DFF8A4804045A4
:101D300002D14FF0020808E0DFF89880404502D158
:101D40004FF0030801E04FF0040808FA06F848EAEB
:101D50000508CCF808804D68D9F80060ED024D46C2
:101D600001D5164300E096432E604D68DAF8006016
:101D7000AD02554601D5164300E096432E604D68EE
:101D8000DBF80060AD035D4601D5164300E09643E5
:101D90002E604D68DEF80060ED03754601D51643F0
:101DA00000E096432E60641C0D682A46E5407FF4EF
:101DB00031AFBDE8F88F00000804014000001110A9
:101DC000001002400000014000080140000C0140EA
:101DD00000100140001401400AB10161704709047C
:101DE000FBE7000001488068704700008400002085
:101DF00002488168027811448160704784000020A5
:101E0000074810B5016841F010010160032000F09F
:101E100075F80F2000F006F800F024F8002010BD3F
:101E20000020024070B50D4D04464FF47A712878B9
:101E3000B1FBF0F00A490968B1FBF0F001F09EF93E
:101E400048B9102C07D200222146501E00F036F867
:101E500000206C6070BD012070BD00008400002077
:101E6000900000200C4808B5816941F001018161B2
:101E7000816901F001010091C16941F08051C161A6
:101E8000C06900F0805000900448416821F0E06192
:101E900041F00071416008BD0010024000000140A7
:101EA000002809DB00F01F02012191404009800059
:101EB00000F1E020C0F8001170470000F0B40E4BB4
:101EC0001B680C46C3F30223C3F10705042D00D998
:101ED0000425191D072901D2002300E0DB1E01267D
:101EE00006FA05F1491E214099409E40761E164093
:101EF0003143F0BC03F008B80CED00E0064900F0F7
:101F0000070208684FF6FF03184040EA0220034A20
:101F100010430860704700000CED00E00000FA0577
:101F200010B50C0607D501F0070101EB810100EBAC
:101F3000C100103005E001EB810100EBC10000F5AC
:101F4000A87099B232B1012202730181190C41814A
:101F5000002010BD00220273C180F9E7704701EB39
:101F6000810200EBC202D0F8D402526A01F061BFD4
:101F700001EB810200EBC202D0F8D402D2F8642156
:101F800001F0BABF70B504460B0601F0070000EB84
:101F9000800104EBC1014FF001024FF0000502D5B2
:101FA0004A74103103E081F8515101F5A8710870AD
:101FB00094F89002012808D084F89022206802F05A
:101FC000FBFB84F89052002070BD022070BD70B5FC
:101FD000044601F00F002279904201D9012070BD22
:101FE0000B0601F0070000EB800104EBC1014FF08C
:101FF00001024FF0000502D54A74103103E081F868
:10200000515101F5A8718D70087094F89002012863
:1020100008D084F89022206802F06BFC84F890527B
:10202000002070BD022070BD2DE9F05F04685FEAFA
:10203000424C0B788D69B4F850C04FF000064BF657
:102040008F7948F2800A48F68F7B48F2C00E4FF431
:1020500080672AD54FF0020808EBC308C44407EB99
:102060004C07E45BC4F30904A54203D32D1B8D6127
:1020700001D00BE08E61066836F8235005EA0905A9
:1020800085F4005545EA0A0526F82350520609D57D
:102090000D78036833F8252002EA0B0242EA0E02AB
:1020A00023F8252084B30A8929E04FF0060808EBBD
:1020B000C308C44407EB4C07E45BC4F30904A5421E
:1020C00003D32D1B8D6101D00BE08E61066836F8BD
:1020D000235005EA090585F4005545EA0A0526F866
:1020E0002350520609D40B78056835F8232002EAFC
:1020F0000B0242EA0E0225F823202CB14A894969D5
:102100000068234602F0CEFE2046BDE8F09F2DE990
:10211000F05F054600680C465FEA426C16468B6924
:102120002278B0F850C048F68F774CF280094FF40F
:10213000004B4FF6FF7E4FF4806A4FF0000172D5DE
:102140004FF0020808EBC208E0440AEB480C30F8F4
:102150000C00C0F30900834211D91B1AA3610FD0F0
:10216000730407D52E6836F822303B4043EA090352
:1021700026F8223094F82420012A47D052E1A161A8
:10218000607810B1012813D01AE02868B0F85030F8
:10219000184400EB0210B0F80424C2F30902A0F8BE
:1021A0000424B0F8042442F40042A0F8042407E018
:1021B0002868B0F85030184400EB0210A0F804145E
:1021C0006278286812B1012A11D018E0B0F85010D6
:1021D0000844217800EB0110B0F80C14C1F3090198
:1021E000A0F80C14B0F80C1441F4004105E0B0F86C
:1021F00050201044227800EB0210A0F80C14217833
:102200002846FFF7ACFE700472D40BE16269024409
:102210006261E2690244E2612369226A9A4203D35D
:102220001846111A04E03EE084F824100AB1104662
:102230002162617811B1012929D031E02968B1F812
:1022400050201144227801EB0211B1F80424C2F3AA
:102250000902A1F8042401F204413E2807D94209E9
:10226000C30600D1521E0B884BEA822207E048B118
:102270004208C30700D0521C0B880EEA8222134387
:102280000B800DE00A8842F400420A8008E02968C9
:10229000B1F850201144227801EB0211A1F8040496
:1022A00083B22289BAE04FF0060808EBC208E04486
:1022B0000AEB480C30F80C00C0F30900834211D33C
:1022C0001B1AA3610FD0730407D42E6836F822308E
:1022D0003B4043EA090326F8223094F82420012ADF
:1022E00051D09FE0A161607818B1012814D01BE0A3
:1022F0003FE02868B0F85030184400EB0210B0F806
:102300000424C2F30902A0F80424B0F8042442F41F
:102310000042A0F8042407E02868B0F850301844C0
:1023200000EB0210A0F804146278286812B1012AA8
:1023300011D018E0B0F850100844217800EB0110DB
:10234000B0F80C14C1F30901A0F80C14B0F80C1487
:1023500041F4004105E0B0F850201044227800EB31
:102360000210A0F80C1421782846FFF7F8FD70043D
:1023700058D42278296831F82200384040EA090010
:1023800021F822004EE0626902446261E26902447F
:10239000E2612369226A9A4203D31846111A216224
:1023A00004E00AB11046216284F82410627829689A
:1023B00012B1012A28D02FE0B1F850201144227820
:1023C00001EB0211B1F80C24C2F30902A1F80C24AC
:1023D00001F20C413E2807D94209C30600D1521E22
:1023E0000B884BEA822207E048B14208C30700D0BD
:1023F000521C0B880EEA822213430B800CE00A88E1
:1024000042F400420A8007E0B1F8502011442278DB
:1024100001EB0211A1F80C04628983B2616928689A
:1024200002F05EFD2278296831F8220048F6BF7379
:10243000184080F0300048F28003184321F8220051
:102440000020BDE8F09F01F0070101EB810100EBE6
:10245000C100D0F86C0170472DE9F04104460F0629
:1024600001F0070000EB800104EBC1014FF0010611
:102470004FF0000502D54E74103103E081F8515140
:1024800001F5A871022B08700A61CB7000D10D71A3
:1024900094F89002012809D084F89062206802F034
:1024A0003BF8284684F89052BDE8F0810220FBE713
:1024B00010B501F0070404EB840100EBC101C1E990
:1024C00059230022C1F86C2181F8512181F8504133
:1024D000006801F5A87102F061FA002010BD70B526
:1024E00004460D4601F007002179884201D90120F8
:1024F00070BD29064FF000064FF0010206D500EB33
:10250000800104EBC1014A74103107E005EB85013D
:1025100004EBC10181F8516101F5A8718A7008705E
:1025200094F89002012807D084F89022206802F0E5
:102530001CFA680702D006E0022070BD04F526717F
:10254000206802F0D4F984F89062002070BD10B5C4
:1025500001F0070404EB840100EBC101C1E9092388
:10256000012281F834200B630023CB624A7401F806
:10257000104F006802F012FA002010BD1FB504468B
:10258000006802F08BFC010403D5204600F0C8FE71
:102590001FBD41050DD5206830F8441F21F480612E
:1025A0000180204600F000F90021204600F017F9D4
:1025B0001FBD410405D5206830F8441F21F4804137
:1025C00074E0810405D5206830F8441F21F40051DF
:1025D0006CE0C10414D5206830F8401F21F00401DC
:1025E0000180206830F8401F21F00801018020465A
:1025F00000F0EDF8206830F8441F21F4805155E0D8
:10260000010540D5D4F800200020694632F820307A
:1026100021F81030401CC0B20828F7D332F8400F20
:1026200040F001001080206830F8402F22F00102B5
:1026300002802068B0F844205205FBD530F8442FC2
:1026400022F4806202800020236831F8102023F8F1
:102650002020401CC0B20828F6D3206830F8401F64
:1026600041F008010180206830F8441F21F4006126
:102670000180206830F8401F41F0040101802046AD
:1026800000F0E0F81FBD810509D5206830F8441F2F
:1026900021F400710180204600F09DF81FBDC005A7
:1026A000FCD5206830F8441F21F4807101801FBDE3
:1026B0002DE9F041040004D094F89102002518B1EE
:1026C00007E00120BDE8F08184F89052204600F038
:1026D0004DF8032084F891026571206802F000F93A
:1026E00094E80F0002F066F8022698BB00212068EB
:1026F00002F0EEFB70BB002001270BE000EB800135
:1027000004EBC1014F740874CD740D624D62401C1E
:10271000C0B28D6221798142F0D8002012E000BF62
:1027200000EB800104EBC10181F8515181F85001A7
:1027300081F85351C1F86051C1F86451401CC0B2D6
:10274000C1F8685121798142EAD894E80F0002F07B
:10275000BEF810B184F89162B3E7657384F89172A2
:10276000206802F0B2F80020ACE7000008B500686D
:102770000B49884212D10B48C16941F40001C16183
:10278000C069002200F40000009011461420FFF7F9
:1027900095FBBDE808401420FFF782BB08BD000090
:1027A000005C00400010024070B5044680790125AD
:1027B000022801D0FFF755F82946D4F8D40201F0D9
:1027C00083FCD4F8D402BDE8704001F03FBCD0F8DF
:1027D000D40201F063BCD0F8D40201F069BC10B59A
:1027E000044690F8900201280AD0012084F8900253
:1027F0006173206802F06EFB002084F8900210BD27
:10280000022010BDD0F8D42200F52671104601F048
:1028100067BC10B5044690F89002012810D0012042
:1028200084F89002206802F02AFB01212046FFF77D
:1028300095FB206802F047F8002084F8900210BD54
:10284000022010BD10B50446D0F8D40201F087FC78
:10285000A07A002804D00348016841F00601016015
:1028600010BD000010ED00E02DE9F84305460078AA
:10287000354CC00754D0E0690026C00008D4E06998
:1028800040F08050E061E069012600F08050009047
:102890002E480168C90512D40168804641F4807150
:1028A0000160FFF79FFA074605E000BFFFF79AFABD
:1028B000C01B642823D8D8F80000C005F6D5206ACC
:1028C00010F4407021D0A98801F4407181421CD0DD
:1028D000206A1F49012220F440700A6000220A6029
:1028E0002062C00711D0FFF77DFA074641F2883811
:1028F00008E000BFFFF776FAC11B414502D903206B
:10290000BDE8F883206A8007F4D5206A696820F45E
:102910004070084320621EB1E06920F08050E06101
:102920002878800705D56068A96820F440400843EE
:1029300060602878C00605D56068E96820F48000EA
:10294000084360600020DBE7001002400070004098
:10295000400442422DE9F0470F46050061D0434E46
:10296000306800F00700B84209D2306820F0070054
:1029700038433060306800F00700B84251D1286811
:102980003B4C810712D5400703D5606840F4E060F6
:1029900060602878000703D5606840F4605060608C
:1029A0006068A96820F0F000084360602878C007DC
:1029B00028D06868012810D02168022810D0890723
:1029C00000292EDA616821F0030101436160FFF7FD
:1029D00009FA804641F288390DE021688903EFE762
:1029E0008901EDE7FFF7FEF9A0EB0801494502D99F
:1029F0000320BDE8F0876068696800F00C00B0EB68
:102A0000810FEFD1306800F00700B8420BD9306871
:102A100020F0070038433060306800F00700B8420B
:102A200001D00120E5E72878400705D56068E9680E
:102A300020F4E060084360602878000706D56068ED
:102A4000296920F4605040EAC100606000F018F885
:102A50006168084AC1F30311515CC8400649086027
:102A600006480068FFF7DEF90020C2E700200240B8
:102A700000100240D8580008900000208800002074
:102A80000E4A51680E4801F00C03042B11D0082B9C
:102A90000FD10C48C1F38343C903C05C0AD5516808
:102AA000084AC1F34041921E515C054A5043B0FBB5
:102AB000F1F070470449484370470000001002409D
:102AC00000127A00C858000800093D002DE9F84FAF
:102AD000040070D02078C04DC00749D06868C0F3AA
:102AE0008100012807D06868C0F38100022809D15D
:102AF0006868C00306D52868800339D56068002857
:102B0000E7D035E06068B0F5803F0BD010B1B0F58C
:102B1000A02F11D0286820F480302860286820F485
:102B2000802002E0286840F480302860606890B11E
:102B3000FFF758F906460AE0286840F4802028602C
:102B4000F0E700BFFFF74EF9801B642873D82868B0
:102B50008003F7D50CE0FFF745F9064605E000BF16
:102B6000FFF740F9801B6428F0D828688003F7D469
:102B700020789A4E80074FF001094FF0000839D5B0
:102B8000686810F00C0F07D06868C0F38100022855
:102B900009D16868C00306D42868800714D5206965
:102BA000012808D110E02069B0B1C6F80090FFF705
:102BB00019F9074605E00AE1FFF714F9C01B0228DE
:102BC000C4D828688007F7D52868616920F0F80024
:102BD00040EAC10028600DE0C6F80080FFF702F966
:102BE000074604E0FFF7FEF8C01B022823D8286838
:102BF0008007F7D4207800072CD57948A169D9B18E
:102C0000C0F80090FFF7EEF8074604E0FFF7EAF897
:102C1000C01B02280FD8686A8007F7D571484FF4A7
:102C2000FA510068B0FBF1F0009000BF0098411E1F
:102C30000091FAD20EE080E0C0F80080FFF7D2F8F1
:102C4000074604E0FFF7CEF8C01B022875D8686A73
:102C50008007F7D42078400760D5E8690027C000D6
:102C600008D4E86940F08050E861E869012700F085
:102C7000805000905C480168C90513D40168834600
:102C800041F480710160FFF7ADF8824606E000BFB5
:102C9000FFF7A8F8A0EB0A0064284ED8DBF8000084
:102CA000C005F5D5E06801280AD008B1052813D081
:102CB000286A20F001002862286A20F0040002E05F
:102CC000286A40F001002862E06841F2883B98B130
:102CD000FFF788F882460BE0286A40F0040028627B
:102CE000EEE700BFFFF77EF8A0EB0A0159455AD87E
:102CF000286A8007F6D50CE0FFF774F8824605E0F5
:102D0000FFF770F8A0EB0A0159454CD8286A8007F4
:102D1000F6D41FB1E86920F08050E861E06988B31B
:102D20006968C1F38101022944D00228C6F8608095
:102D300004D0FFF757F8044638E034E0FFF752F8C4
:102D4000074604E0FFF74EF8C01B02282BD828687E
:102D50008001F7D4206AB0F5803F05D16868A1688A
:102D600020F4003008436860D4E90801084369682A
:102D700021F4741108436860C6F86090FFF732F8D8
:102D8000044606E025E000BFFFF72CF8001B0228F0
:102D900009D828688001F7D51BE000BFFFF722F8AB
:102DA000001B022802D90320BDE8F88F28688001A3
:102DB000F4D40EE00128F7D06868226A00F480316C
:102DC000914204D1616A00F47010884201D0012060
:102DD000EAE70020E8E7000000100240000042425D
:102DE00080044242900000200070004010B50400B2
:102DF00011D0022084F851002068016821F04001C0
:102E00000160204600F062F80020606584F85100FF
:102E100084F8500010BD012010BD70B5040009D029
:102E2000606A002540B125616561A56294F8510092
:102E300040B10CE0012070BD6068B0F5827FF4D035
:102E4000E561F2E784F85050204600F053F8022084
:102E500084F851002068016821F040010160A088D9
:102E6000218900F4827001F404410843A18901F42E
:102E700000610843217C01F002010843217D01F03B
:102E800001010843218B01F400710843217F01F007
:102E90003801084394F8201001F080010843218D87
:102EA00001F40051084321680860A069042101EA87
:102EB0001040216848602068C16921F40061C16147
:102EC0006565012084F85100002070BD0068064946
:102ED000884208D10548816921F480518161F0213F
:102EE0000348FEF7FDBD704700300140001002406E
:102EF0000008014070B586B0002405460094019496
:102F00000294039400681E49884233D11D498869A0
:102F100040F480508861886900F48050049088698A
:102F200040F0040088618869174E00F004000490A6
:102F3000A0200090022001900320039069463046B3
:102F4000FEF75AFE102000906868B0F5827F13D01B
:102F5000019469463046FEF74FFE012210213046AB
:102F6000FEF73AFF4020CDE900046946304602945E
:102F7000FEF742FE06B070BD01200190E9E70000B7
:102F80000030014000100240000801402DE9FF4FD1
:102F900081B01D46934604464FF001090E9EFEF790
:102FA00021FF074694F851006168012806D0B1F569
:102FB000827F3CD1A168C9BB042838D1029800287F
:102FC00071D0BBF1000FFBD0002DF9D094F8500068
:102FD00001282CD04FF0010A84F850A094F8510039
:102FE000042802D0052084F851004FF00008C4F8EE
:102FF0005480C4F838B0E587A58702992163E58637
:10300000A586C4F84080C4F8448020680168490659
:1030100003D4016841F040010160E068B0F5006F41
:10302000606808D0F0B3012D49D081E0FFE70220AD
:1030300005B0BDE8F08F08B1012D39D1206B2168B2
:103040000088C860206B801C2063E08E401EE086F4
:103050002EE02068816889070FD5E18E69B1B9F14A
:10306000010F0AD1216B0988C160206B801C20638D
:10307000E08E401EE0864FF0000920688168C90795
:103080000CD0E18F51B1C068A16B0880A06B801C8F
:10309000A063E08F401EE0874FF00109FEF7A2FE1B
:1030A000C01B01E00BE067E0B04201D3701C50D1BF
:1030B000E08E0028CDD1E08F0028CAD13EE0206B01
:1030C000216800780873206B401C2063E08E401E4E
:1030D000E0862DE02068816889070FD5E18E69B10F
:1030E000B9F1010F0AD1216B09780173206B401CE3
:1030F0002063E08E401EE0864FF000092068816862
:10310000C9070CD0E18F51B1C068A16B0870A06BEA
:10311000401CA063E08F401EE0874FF00109FEF7DE
:1031200061FEC01BB04202D3701C01D011E086B119
:10313000E08E0028CED1E08F0028CBD13A46314630
:10314000204600F0C1FA50B12020606584F850801C
:1031500012E084F851A084F85080032068E7A0684A
:1031600018B92068C1688068009084F851A084F87C
:103170005080606D0028F1D0012059E710B5401E45
:10318000B0F1807F01D3012010BD4FF0E0246061D9
:103190000F21601701F0B8FE0020A0610720206118
:1031A000002010BDFEE70000F0B500230A24302502
:1031B00037261F4611E000BFB4EB107F02D905EBA4
:1031C000107C01E006EB107C01F813C001EB430C0E
:1031D00000015B1C8CF80170DBB29342ECD3F0BDB4
:1031E0002DE9F04385B00024344800940194029402
:1031F0000394816941F020018161816901F020011E
:103200000491816941F004018161816901F0040147
:103210000491816941F0080181618069DFF8A08033
:1032200000F008000490012202214046FEF7D4FD80
:1032300000220C214046FEF7CFFDDFF888900122E6
:103240004FF420414846FEF7C7FD00224FF480416D
:103250004846FEF7C1FD02251126CDE90056694614
:103260004046CDE90245FEF7C7FC0C200127CDE919
:10327000000769464046CDE90245FEF7BDFCE8027D
:10328000CDE90004694648460294FEF7B5FC4FF4C8
:10329000C040CDE9000769464846CDE90245FEF742
:1032A000ABFCA803CDE9000669464846CDE90245D6
:1032B000FEF7A2FC05B0BDE8F0830000001002405C
:1032C00000080140000C014010B500220F491048D1
:1032D00000F088FD08B1FEF7C4FA0E490C4800F072
:1032E00064FF08B1FEF7BDFA0B49094800F086FB00
:1032F00008B1FEF7B6FA064800F0ACFF002803D08C
:10330000BDE81040FEF7ADBA10BD0000240000205B
:10331000801200207001002074000020FEE7FEE70C
:103320002DE9F84F044640F68F7B48F60F794FF4AD
:1033300080684FF0000ABDE1B0F8441011F00F05AD
:1033400039D030F8256031047ED530F8251001EAF7
:103350000B0141F0800120F8251005EB850004EBFE
:10336000C00797F85C0107F5A87700286DD0F878BA
:1033700002286BD03978226832F8210048F68F7322
:10338000184048F2C003184322F821003978206819
:1033900030F82120B0F8503052047DD5022202EBE3
:1033A000C1015A1808EB4201415A8905890D009163
:1033B00073D03A89DDE0C9062BD4018801EA0901FE
:1033C00041F400410180206804F11005B0F850304C
:1033D000217C022202EBC1015A1808EB4201405A3B
:1033E000C0F30900E062616A08446062002120467F
:1033F000FEF7B5FD607B00289DD0A86900289AD112
:10340000607B216840F08000A1F84C0084F80DA09A
:1034100050E1018804F5A8750A0521D5B0F85020BF
:103420002B78062101EBC3010A4408EB4201405A04
:1034300004F52671C0F30903EB61EA88206801F006
:1034400031FD2068018802E0AEE06EE07EE001EA36
:103450000B0141F0800101802046FFF7D3F929E1FB
:103460000904D5D5018801EA0B0141F080010180F2
:103470002068B0F850202B78062101EBC3010A44E4
:1034800008EB4201405A83059B0DEB6110D069693E
:1034900071B1EA88206801E05FE05DE001F002FDC3
:1034A000E96968690844686100212046FEF760FD0B
:1034B000216808880205ABD4C0F301300328A7D0E7
:1034C000B1F850000844B0F80C14C1F30901A0F899
:1034D0000C142A6900F20C403E2A09D95109D2067F
:1034E00000D1491E02884FF4004343EA812109E0DC
:1034F000B2B15108D20700D0491C02884FF6FF73C1
:1035000003EA81210A430280216808884BF68F7202
:10351000104080F4405048F2800210430880C9E017
:10352000018841F400410180EEE72068B0F85020A6
:103530003B78062101EBC3010A4408EB4201415AE2
:103540008905890D009118D0FA8812E03246394673
:103550002046FEF769FD00900FE0062202EBC10154
:103560005A1808EB4201415A8905890D009104D08F
:103570007A897969009B01F095FCF8690099084403
:10358000F8617969009808447861B86918B13969B7
:103590000098814204D939782046FEF7E9FC03E01F
:1035A0003946206801F0FAF930062ED505EB850082
:1035B00004EBC001206830F8252002EA090242F439
:1035C000004220F82520C87C103101281ED0F005CB
:1035D0006CD42068B0F850300D78022202EBC5029E
:1035E0001A4408EB4202805A8A69C0F309008242F9
:1035F00055D9121A8A6154D04A6902444A61CA698B
:103600001044C861206801F0C9F953E0C1F818A05E
:10361000087B524608B3700620D5487810B10128BF
:1036200012D03AE02068B0F8502010440A7800EB3D
:103630000210B0F80424C2F30902A0F80424B0F880
:10364000042442F4004206E02068B0F850301844E8
:103650000B7800EB0310A0F804241EE04B782068E0
:1036600013B1012B11D018E0B0F8502010440A78A3
:1036700000EB0210B0F80C24C2F30902A0F80C24ED
:10368000B0F80C2442F4004205E0B0F85030184481
:103690000B7800EB0310A0F80C24097802E0C1F8C5
:1036A00018A0E9B22046FEF75AFC03E03246204655
:1036B000FEF72DFD2068B0F8441009043FF53CAE3C
:1036C0000020BDE8F88F7047F8B515460E460B464A
:1036D000009204460122022100F010F840B933465E
:1036E000002280212046009500F008F8002804D030
:1036F000606D40F0200060650320F8BD2DE9F843BF
:103700001E46914688460446089DFEF76BFB401B0B
:10371000351AFEF767FB074625480068C0F3CB3033
:10372000684338E0701C37D0FEF75CFBC01BA84232
:1037300003D215B1009860B32CE02068416821F0F5
:10374000E00141606068B0F5827F0BD1A068B0F500
:10375000004F02D0B0F5806F04D12068016821F0DD
:1037600040010160A06AB0F5005F09D120680168DE
:1037700021F4005101602068016841F400510160AA
:10378000012084F85100002084F850000320BDE897
:10379000F8830025401E00902068816838EA010007
:1037A00004D000214945BDD10020F0E70121F9E70F
:1037B000900000207047FEF71BBB30B593B0282166
:1037C0006846FDF7ACFF14210AA8FDF7A8FF002406
:1037D00001200F9410941194010412948DE81300A9
:1037E00004904FF4E010CDE90810022507956846D3
:1037F000FFF76CF908B172B6FEE70F20CDE90A05B4
:103800004FF48060CDE90C4002210AA80E94FFF726
:10381000A1F808B172B6FEE710200F9012940FA81D
:10382000FFF722F8002801D072B6FEE713B030BDD2
:1038300070472DE9F041D0F8C032D0F8B822CAB1B3
:1038400001EB810500EB85040026E7693FB103EB3E
:10385000C5031B6AB7FBF3F503FB157323B1C2F86D
:1038600014620020BDE8F08100231A46E66100F0F2
:103870007FFCF6E70220F5E770B50546D0F8B842C0
:1038800000F07BFBC4F80C02D5F8B80248B1D5F8BB
:10389000BC12D4F80402CA6804F5037190470020F2
:1038A00070BD022070BD70B504460026812100F075
:1038B000B7FA002501212046E56200F0B1FA822125
:1038C0002046C4F86C5100F0ABFA2564D4F8B80275
:1038D00048B1D4F8BC0204F52E74406880472068D3
:1038E00000F015FE2560304670BD10B5D0E9AE4140
:1038F00059B194F80002FF2807D08B6894F8012290
:1039000021469847FF2084F80002002010BD0000E7
:103910000A2101800048704798000020432101805F
:1039200000487047E80000204321018000487047AC
:10393000A400002043210180004870472C01002092
:103940002DE9F04104460026007C4FF40077012564
:1039500090B3402302228121204600F062FB4023E5
:10396000E56202220121204600F05BFB08230322CE
:1039700082212046C4F86C5100F053FB4FF40770CD
:10398000256400F0C5FDC4F8B802F8B10546D4F8C6
:10399000BC02006880470020C5F81402C5F8180270
:1039A000207CD5F8042298B140230121204600F064
:1039B00044FB3046BDE8F081FFE73B46022281210F
:1039C000204600F02EFB3B46E562CAE70126F0E701
:1039D0003B46EAE710B5D0F8B81269B1027C002A7C
:1039E000D1F8042205D04023012100F026FB00205D
:1039F00010BD4FF40073F7E7022010BD024602200D
:103A0000002902D00020C2F8BC127047D0F8B802DA
:103A1000C0F8041200207047D0F8B802C0F8102295
:103A2000C0F80812002070472DE9FC410546D0F887
:103A3000B87200208DF80000ADF804000646087842
:103A40000C4610F0600121D020293BD1E288AAB1B8
:103A50000006607807D5D5F8BC128B6839469847C0
:103A6000E288394626E087F80002A07987F801024B
:103A7000E2883946284600F06AF828E0D5F8BC12FA
:103A8000607800228B682146984720E0607820B15A
:103A90000A2809D00B2815D110E095F89C020328BC
:103AA00010D1022201A905E095F89C02032809D152
:103AB00001226946284600F064F808E095F89C0267
:103AC000032804D02146284600F036F80226304666
:103AD000BDE8FC8110B5D0F8B812A1B1D1F814221C
:103AE0000AB1012010BD0122C1F81422D1F8102220
:103AF0000263B1F8102293B2D1F80822812100F0BC
:103B000037FB002010BD022010BD10B5D0F8B42244
:103B100052689047002010BD134610B50A46002198
:103B200000F08BFA002010BD134610B50A460021A4
:103B300000F01EFB002010BD10B50446802100F0EF
:103B4000FCFA2046BDE81040002100F0F6BA10B59E
:103B50000323C0F85C21C0F89432C0F860211346FA
:103B60000A46002100F069FA002010BD10B50521B9
:103B70000023C0F894121A46194600F05EFA00209D
:103B800010BD10B50223C261C0F894320262134620
:103B90000A46002100F0ECFA002010BD10B5042107
:103BA0000023C0F894121A46194600F0E1FA0020EA
:103BB00010BD000010B50A46024903A000F0E2F86B
:103BC000004810BD4415002043444320436F6E66F7
:103BD00069670000122008800048704744000020F8
:103BE00010B50A46024903A000F0CCF8004810BD09
:103BF0004415002043444320496E74657266616336
:103C00006500000004200880004870474000002044
:103C100010B50A46024903A000F0B4F8004810BDF0
:103C20004415002053544D6963726F656C6563746D
:103C3000726F6E696373000010B50A46024903A0F3
:103C400000F0A0F8004810BD4415002053544D3337
:103C500032205669727475616C20436F6D506F72BB
:103C60007400000010B51A2008800A480168001D81
:103C70000468001D0068081809D008220649FFF7EB
:103C800093FA0549042210312046FFF78DFA0248C5
:103C9000801E10BDE8F7FF1F5A000020F8B504464B
:103CA0000020ADF8000048880D46010A082948D2D6
:103CB000DFE801F04704091747473C45D4F8B01244
:103CC000207C0A6819E0207C02260028D4F8B4027F
:103CD00005D0C16A68468847014646703EE0816A61
:103CE000F8E7C0B206282CD2DFE800F0030A10146F
:103CF000181CD4F8B002426805E0694690471CE001
:103D0000D4F8B0028268E2B1207CF6E7D4F8B002C1
:103D1000C268F8E7D4F8B0020269F4E7D4F8B00258
:103D20004269F0E7D4F8B0028269ECE7207C40B940
:103D3000D4F8B402416B6846884701460EE0207C07
:103D400020B129462046FFF7F7FEF8BDD4F8B402AB
:103D5000016B68468847014607204870BDF800009F
:103D600048B1EA8852B1824200D90246ADF800203B
:103D70002046FFF706FFE8880028E6D12046FFF737
:103D80000DFFF8BD70B5002300281ED004460025A5
:103D900002E06D1CEDB2641C2678002EF9D10224DD
:103DA00004EB450414801278CA545B1C0322CA54E5
:103DB00000245B1C06E0CA545B1CDAB28C54521C13
:103DC000D3B2401C0278002AF5D170BD01004FF03B
:103DD000000004D0012901D0022901D0022070473F
:103DE0000120704710B580B1D0F8B43213B1002370
:103DF000C0F8B43209B1C0F8B012012180F89C12A9
:103E0000027000F0BFF8002010BD022010BD10B5F8
:103E1000D0F8C002FEF7DBF8BDE81040FFF7D6BFD0
:103E200010B5D0F8C002FEF7ADF8BDE81040FFF7BE
:103E3000CDBF2DE9F0411746044651B1D4F8B40284
:103E400042691AB194F89C02032851D00220BDE8BF
:103E5000F081D4F89432002504F11400022B03D031
:103E6000042B3AD0C3B33CE0D0E903639E4207D9A8
:103E7000F11AC1608AB239462046FFF755FE12E0BA
:103E80008068B0FBF3F103FB110199B9984211D39B
:103E9000D4F8981288420DD2002211462046FFF72E
:103EA00043FEC4F8985200231A461946204600F0F3
:103EB000C4F816E0D4F8B402C16829B194F89C02A1
:103EC000032801D1204688478021204600F035F99B
:103ED0002046FFF74BFE04E0FFE78021204600F07C
:103EE0002CF994F8A002012804D184F8A05201E032
:103EF000204690470020AAE770B51546044649B110
:103F0000D4F8B40282691AB194F89C02032830D024
:103F1000022070BDD4F8941204F5AA70032902D0CF
:103F200005291ED027E0D0E903218A420BD9531A74
:103F3000C3600846834200D303469AB2294620460E
:103F4000FFF7EAFD17E0D4F8B402016929B194F84B
:103F50009C02032801D1204688472046FFF71EFE19
:103F600009E000200146C4F89402204600F0E5F87C
:103F700001E020469047002070BDD0F8C002FEF757
:103F800062BA000010B504461C481D49C0F8D4426E
:103F9000C4F8C00201600821017102218171002171
:103FA0008172C1720173FEF783FB08B1FDF759FC02
:103FB0000022D4F8C0021823114604F53074FDF72E
:103FC000AFFF5823002280212068FDF7A9FFC023FE
:103FD000002281212068FDF7A3FF4FF4887300229F
:103FE00001212068FDF79CFF4FF48073002282219D
:103FF0002068FDF795FF002010BD0000642100201F
:10400000005C00400A0601F07F01D0F8C00201EB1D
:10401000810100EBC10001D5807C704790F852010E
:10402000704710B51C461346D0F8C0022246FEF772
:1040300013FABDE81040FFF7C9BE10B5D0F8C002B2
:10404000FEF736FABDE81040FFF7C0BE70B500229B
:10405000044640231146FFF7E4FF40260125C4F83B
:1040600064613346002280212046C4F85851FFF78E
:10407000D8FF6662A56184F89C520020C4F89402BF
:104080006060C4F8A402D4F8B80228B1D4F8B4022D
:104090000021426820469047002070BD90F89C1295
:1040A000042903D190F89D1280F89C1200207047DB
:1040B00010B590F89C12032904D1D0F8B412C96944
:1040C00001B18847002010BD01740020704710B571
:1040D000D0F8C002FEF783FBBDE81040FFF776BEC4
:1040E00070B5044600F52A70054600F04AF8012034
:1040F000C4F89402B4F8AE02C4F8980294F8A80286
:1041000010F01F010AD001290DD0022910D000F0B3
:104110008001204600F011F8002070BD294620469D
:1041200000F09DF8F8E72946204600F0C9F9F3E7CA
:104130002946204600F01CF9EEE710B5D0F8C00281
:10414000FEF7CDF9BDE81040FFF740BE10B5D0F83E
:10415000C002FEF75EFBBDE81040FFF737BE90F8E7
:104160009C1280F89D12042180F89C120020704758
:1041700010B5D0F8C002FEF7EAF9BDE81040FFF72D
:1041800025BE0A7802704A7842708A78CB7802EBB2
:10419000032242800A794B7902EB032282808A79DA
:1041A000C97902EB0121C18070470246002011B19C
:1041B000C2F8B41270470220704710B5D0F8B4228C
:1041C00002241AB11268904700B90024204610BD9D
:1041D00070B50E461E4D897804462970012931D8E4
:1041E00094F89C0202280BD003280FD031462046B9
:1041F000FFF7A2FC29782046BDE87040FFF785BC98
:10420000D9B10320616084F89C0209E071B1606853
:10421000884212D0C1B22046FFF777FC297861604E
:104220002046FFF7CAFF02280CD006E0022084F8DF
:104230009C0220466160FFF768FC2046BDE87040A4
:10424000FFF7ACBC31462046BDE87040FFF774BCB8
:104250009400002010B5FFF779FF002010BD2DE974
:10426000F0410A78002612F0600208D0202A01D01E
:10427000402A70D1D0F8B422926890476DE04B7814
:10428000002201250A2B66D2DFE803F0405D655766
:10429000650805652C29FFF701FD5EE00446888866
:1042A000D8B9C888C8B94888802816D200F07F07D6
:1042B00094F89C02032810D084F89E723946204658
:1042C000FFF705FF2046FFF769FC1FB1022084F8C5
:1042D0009C0242E084F89C523FE020463BE0FFF71E
:1042E00077FF3AE0CB88012B35D190F89C32012B37
:1042F00004D0022B02D0032B2DD104E082600122D6
:1043000000F1080116E00122011D13E090F89C2243
:10431000012A03D0022A01D0032A1CD1CA88022A0A
:1043200019D1C560D0F8A41209B10321C1600222DD
:1043300000F10C01FFF725FC0FE0498801290CD1A1
:10434000C0F8A45211E090F89C32012B08D0022B47
:1043500006D0032B04D0FFF7EFFB3046BDE8F08119
:1043600049880129F9D1C0F8A422FFF717FCF4E726
:104370002DE9F0410A46044610780027097910F02B
:1043800060030AD0202B01D0402B50D1D4F8B402C6
:1043900011468368204698478FE0C0F341100128FA
:1043A00006D05078D0B301282AD003283FD107E0A7
:1043B000D4F8B402114683682046BDE8F04118479E
:1043C00094F89C02022802D0032872D10AE071B34B
:1043D00080296ED02046FFF7B0FE80212046FFF7EF
:1043E000ACFE6AE0508838B931B1802904D0D08859
:1043F00010B92046FFF7A1FE2046FFF7CFFB5CE097
:1044000094F89C020228E2D0032852D1508898BB2D
:104410004806F1D02046FFF7FAFCEDE7FFE794F8F5
:104420009C020026022803D0032842D112E040E07B
:1044300009B180293DD1080601F07F0000EB800022
:1044400004EB800101D5143101E001F5AA710222CB
:104450000E602AE0080601F00F0000EB800004EB7C
:1044600080000AD5806920B301F07F0000EB800056
:1044700004EB800514350BE01FE0D0F85801C0B103
:1044800001F07F0000EB800004EB800505F5AA75C4
:1044900041B1802906D02046FFF7B4FD10B10120BC
:1044A000286000E02E60022229462046FFF769FBC3
:1044B00003E011462046FFF73FFB3846BDE8F08198
:1044C00070B5054608780C4610F0600003D020282F
:1044D00001D0402816D195F89C02012803D002286B
:1044E00001D003280ED1207901280BD8D5F8B402C9
:1044F000826828469047E188014306D12846FFF7A5
:104500004DFB02E02846FFF717FB002070BD704707
:1045100000487047441F00202DE9F0470C78002622
:1045200030F8243048F68F121340CA78002A78D029
:10453000012A7CD0022A02D0032A75D0012648F233
:104540008002134320F824300D7830F8253048F6E7
:104550008F7423402B43134320F825300D7B48F202
:10456000C00948F6BF734CF2800A4BF68F77EDB363
:10457000CD7891F800C0022D30F82C507DD048F64F
:104580008F6805EA0805154320F82C50B0F8505004
:1045900091F800C0054405EB0C15B1F808C02CF0EB
:1045A000010CA5F800C4B0F8505091F800C00544C3
:1045B00005EB0C15B1F80AC02CF0010CA5F808C4E5
:1045C0004D78002D7ED00D7830F825C05FEA4C4C38
:1045D00007D530F825C00CEA040C4CEA0A0C20F888
:1045E00025C091F800C030F82C5000E022E06D06A4
:1045F00006D530F82C50254045EA090520F82C5006
:10460000CC780D78012C30F8254004EA03047CD0E6
:1046100084F02003134320F82530C1E001E006E0D8
:1046200002E043F400738AE743F4C06387E743F48E
:10463000806384E74D784DB3B0F850500F7805444F
:1046400005EB0715CF8827F00107A5F800740F7850
:1046500030F827506D0606D530F82750254045EA3A
:10466000090520F82750CC78012C07D00C7830F8B9
:104670002410194081F0200104E064E00C7830F847
:1046800024101940114320F8241090E0B0F8503065
:104690000D78034403EB0513CD8825F00105A3F83D
:1046A0000854B0F850300D78034403EB0513B3F809
:1046B0000C54C5F30905A3F80C540D6903F20C431F
:1046C0003E2D00E045E00BD94FEA551CED0601D127
:1046D000ACF1010C1D884FF4004848EA8C2C0BE02B
:1046E00035B34FEA550CED0701D00CF1010C1D88D4
:1046F0004FF6FF7808EA8C2C45EA0C051D800D78F2
:1047000030F825305B0408D500E046E030F825306D
:10471000234043EA0A0320F82530097861B130F8D4
:1047200021303B4083F40053134320F821303EE016
:104730001D8845F40045E1E70188394081F4405186
:104740001143018033E0254048F2801845EA08050E
:104750001AE791F800C030F82C506D0406D530F8F7
:104760002C50254045EA0A0520F82C5091F800C04D
:1047700030F82C506D0606D530F82C50254045EA0F
:10478000090520F82C500D7830F825403C4084F481
:104790004054144320F8254070E7144320F8254086
:1047A0000B7830F823103940114320F8231030469D
:1047B000BDE8F087002070472DE9F04391F80C80A8
:1047C0004F780A7848F6BF7C4BF68F7948F2800321
:1047D00048F2C0054CF2800648F68F74B8F1000F1D
:1047E00028D0002F30F822704FEA474748D0002FDA
:1047F00005DA30F822702740374320F822700A7813
:1048000030F822707F0605D530F8227027402F43FC
:1048100020F822700D7830F825202240324320F80D
:1048200025200C7830F8242002EA0C021A4320F8E4
:1048300024201AE07FB130F82260760605D530F8E2
:10484000226026402E4320F822600A7830F8221099
:1048500001EA0C010EE030F822506D0405D530F865
:1048600022502540354320F822500A7830F8221093
:1048700001EA0901194320F822100020BDE8F08365
:10488000002F05DA30F822702740374320F82270D5
:104890000A7830F82260760605D530F82260264086
:1048A0002E4320F822600E7830F8262022402A433A
:1048B00020F826200C7830F8242002EA09021A4356
:1048C00020F82420C1E70020704700207047012114
:1048D00020F8401F00210180818001820846704736
:1048E00030F8401F21F43F41018000207047002034
:1048F000704730B50A7BB2BB4A7848F68F7548F2EC
:104900008004C2B10B7830F82320520607D530F866
:1049100023202A4048F2C0052A4320F82320CA78E1
:10492000012A20D00A7830F8221048F6BF731940C7
:1049300081F0200114E00A7830F822305B0407D5BA
:1049400030F822302B404CF280052B4320F82230E7
:104950000A7830F822104BF68F73194081F44051D9
:10496000214320F82210002030BD10B54A78097884
:10497000002A48F2800330F8212005D048F6BF74A1
:10498000224082F0100204E04BF68F74224082F441
:1049900080521A4320F82120002010BD2DE9F04755
:1049A0000D464B78097B04464FF0000948F68F729C
:1049B00048F2800A4FF400474FF6FF78012B09D0E8
:1049C00000296FD0E87802286DD001286CD0012032
:1049D000BDE8F087AE692869864200D9064691B1E4
:1049E000E97802291ED0286A801B2862287834F8CA
:1049F00020104906B4F85010214401EB001073D583
:104A0000A0F80C6416E1B3B2EA882046696900F0A8
:104A100067FAB4F850002978204400EB0110A0F8A0
:104A200004640DE1296A814277D9297834F821009C
:104A3000104048F28012104324F82100286A801B9D
:104A40002862287834F820104906697871D511B1A8
:104A500001292AD030E0B4F85010214401EB0010B5
:104A6000B0F80C14C1F30901A0F80C1400F20C40CA
:104A70003E2E07D97109F20600D1491E028847EA85
:104A8000812107E04EB17108F20700D0491C02886D
:104A900008EA81210A4302800EE0018841F40041C6
:104AA000018009E0F1E020E195E1B4F8502011190E
:104AB00001EB0010A0F80C646A89B3B22046696962
:104AC00000F00EFA6869304468612969286A8842F2
:104AD00002D9801B286202E00646C5F8209068785B
:104AE00018B101282BD032E02FE0B4F8500029781B
:104AF000204400EB0110B0F80414C1F30901A0F840
:104B0000041400F204403E2E08D97109F20600D1C7
:104B1000491E028847EA812108E0A1E056B17108E8
:104B2000F20700D0491C028808EA81210A4302806A
:104B30000DE00EE0018841F40041018007E0B4F887
:104B400050002978204400EB0110A0F804642A8961
:104B500071E011B1012927D02DE0B4F850102144A3
:104B600001EB0010B0F80414C1F30901A0F804141B
:104B700000F204403E2E07D97109F20600D1491E09
:104B8000028847EA812107E04EB17108F20700D0A0
:104B9000491C028808EA81210A4302800BE001884F
:104BA00041F40041018006E0B4F85010214401EBCB
:104BB0000010A0F804642A89B3B22046696900F0A5
:104BC0008FF96869304468612969286A884202D986
:104BD000801B286202E00646C5F82090687810B174
:104BE000012836D026E0B4F850002978204400EBA4
:104BF0000110B0F80C14C1F30901A0F80C1400F274
:104C00000C403E2E07D97109F20600D1491E0288D8
:104C100047EA812107E04EB17108F20700D0491C34
:104C2000028808EA81210A43028003E0018841F4F6
:104C3000004101806A89B3B22046696900F050F9E9
:104C4000297834F8210048F6BF72104080F0300017
:104C50000FE1B4F850100819297800EB0110CFE6E5
:104C60002A7834F8220048F68F63184040EA0A0098
:104C700024F82200B4F850002A78204400EB0210F7
:104C80008BB2A0F804342A89D6E7A9692869814241
:104C900002D9091AA96102E00846C5F81890B4F8CB
:104CA00050102A78214401EB0211B1F80C24C2F310
:104CB0000902A1F80C2401F20C413E287DD94209D9
:104CC000C00600D1521E088847EA82220AE00888FE
:104CD00040F4004007E04208C00700D0521C08889A
:104CE00008EA822210430880BBE033BBB4F85000CE
:104CF0002978204400EB0110B0F80414C1F3090135
:104D0000A0F80414296900F204403E2907D94B0990
:104D1000C90600D15B1E018847EA832307E041B141
:104D20004B08C90700D05B1C018808EA832319439C
:104D300002E0018841F400410180687810B1012847
:104D400028D030E0B4F850002978204400EB01105E
:104D5000B0F80C14C1F30901A0F80C14296900F291
:104D60000C403E2907D94B09C90600D15B1E0188BA
:104D700047EA832307E041B14B08C90700D05B1C19
:104D8000018808EA8323194302E0018841F40041C5
:104D9000018008E0B4F850100819297800EB0110E0
:104DA000298AA0F80C14E869C0B3297834F82100E6
:104DB000430401D5430605D400E046E044F2400335
:104DC00018424ED134F82100104048F2C00210437E
:104DD00024F8210045E0A9692869814202D9091A0D
:104DE000A96102E00846C5F8189013BBB4F850104A
:104DF0002A78214401EB0211B1F80424C2F309021C
:104E0000A1F8042401F204413E2808D94209C3064E
:104E100000D1521E0B8847EA822208E021E078B1D7
:104E20004208C30700D0521C0B8808EA82221343B1
:104E30000B80697800293FF42EAF012909D010E0DA
:104E40000A8842F400420A80F3E700287FF443AF67
:104E50003DE7B4F8502011192A7801EB0211A1F8AE
:104E60000C04297834F821004BF68F72104080F43E
:104E7000405040EA0A0024F821000020A8E5002163
:104E8000A0F844104FF43F41A0F8401000207047B4
:104E90000148FDF773BB000064210020B0F8440016
:104EA0007047000010B500EB42005C0800F5806020
:104EB00009D000BF30F8042B01F8012B120A01F8C9
:104EC000012B641EF6D1DA0701D00088087010BDEE
:104ED0000020704711B98021A0F84C1000207047C5
:104EE00010B55B1C00EB42005B0800F5806009D048
:104EF00011F8012B11F8014B42EA042220F8042B8F
:104F00005B1EF5D110BDFEE70907090E002804DB82
:104F100000F1E02080F80014704700F00F0000F16D
:104F2000E02080F8141D7047FEE7028811440180DC
:104F300001888289B1FBF2F302FB131101807047F3
:104F40002DE9F041002516460F4680462C460EE01E
:104F5000B8F80C003919B1FBF0F200FB121081B265
:104F6000404600F01DF82844641C85B2A4B2B44247
:104F7000EED32846BDE8F0814288818900880A4442
:104F8000101A90FBF1F201FB120080B2704700B5DD
:104F90000346FFF7F1FF9989081A401E80B200BD51
:104FA0000288114482894068B1FBF2F302FB1311BD
:104FB00089B2405C7047F0B515000E46074602D135
:104FC000FFF7DAFF05463846FFF7D6FFA84201D2C1
:104FD0000020F0BD002408E03888204481B2384623
:104FE00000F00BF83055641CA4B2AC42F4D329464F
:104FF0003846FFF79AFF2846F0BD82894068B1FB2A
:10500000F2F302FB1311405C70472DE9F0411546A5
:1050100088460446FFF7BBFFA84202D20020BDE845
:10502000F08160884119A08981420AD26188606854
:105030002A4608444146FCF7FBFA60882844608011
:1050400011E06188401A87B2618860683A46084476
:105050004146FCF7EDFAEE1B08EB070132466068AB
:10506000FCF7E6FA66802846D9E700000149087097
:1050700070470000200000204FF47A71484300F090
:1050800001B8000070B54FF0E024002265690949BD
:10509000A36909784843A1699942FCD002D2A3EBE5
:1050A000010302E0A5EB010633441A440B46824299
:1050B000F1D370BD20000020012291030148FCF7CC
:1050C0008BBE0000000C014000224FF480410148DB
:1050D000FCF782BE000C014010B5044600880107B1
:1050E00034D0C0070CD0FFF7E7FF0520FFF7C4FF5F
:1050F00000F02EF8208820F0010040F400402080CD
:10510000207880070CD500F02BF80520FFF7B4FFBE
:10511000FFF7DAFF208820F0020040F400402080F2
:105120002078400707D500F02BF8208820F00400F5
:1051300040F4004020802078000707D500F018F8E0
:10514000208820F0080040F40040208010BD0000BE
:1051500000224FF400510148FCF73EBE000C014014
:10516000012251030148FCF737BE0000000C01404A
:10517000012202210148FCF72FBE00000008014077
:10518000002202210148FCF727BE00000008014070
:1051900070B538B131B12AB1084B1D682C18B4F57F
:1051A000805F01D9002070BD054E401E3544284463
:1051B0000D60106001201C6070BD00001C0000200C
:1051C00080020020FCF71CFEFEF7F7FAFEF708F855
:1051D000FEF77AF800F002F8FEE700004820FFF73B
:1051E00045FF00F02BF84FF480642146114800F091
:1051F00033F910482146103000F02EF90D48A11067
:10520000203000F029F90B482146303000F024F915
:1052100000F05EFA084800F065FA0748FFF75CFF07
:10522000054800F073F9044800F02EFB024800F036
:1052300017F8EFE7A80100200000002005480068EB
:105240000549C8600548002101600121C160416035
:105250007047000008ED00E004000020E801002095
:105260002DE9F04FADF5177D04464FF416716846F1
:10527000FCF755FA002269467248FFF79CFE724D12
:105280004FF00008002833D09DF801109DF802204F
:105290009DF8000002EB0121DFF8B0918FB24FF0D2
:1052A000010ACDF85882012804D0022856D00328DC
:1052B0007FD19EE09DF804009DF8051001EB0020D1
:1052C0009DF8061001EB00209DF8071001EB00206F
:1052D00028619DF808109DF8092002EB01218AB28F
:1052E0006A80B2F5E84F04D9208840F480402080DD
:1052F0005FE085F800A0022100F090F9FCF7DCFBEC
:105300006888DFF84CA100F2FF30870A00264FF4CE
:10531000806B18E0002051464FEA0B0200EB862319
:105320000B4493F8003CFF2B07D04A4809EB862139
:10533000816096A9FCF722FB03E0401C80B29042FA
:10534000ECD3761CB6B2BE42E4D3FCF76BFB85F817
:105350000180C5F81480A5F8048023E0287801288E
:105360003FD1FCF7A9FB0026EB4617E06878002840
:105370000BEB0600007930D0A988002301EB002058
:1053800082B2AA80696901204944FCF755FB68692B
:10539000801C686185F80180761CB6B2BE42E5D3F8
:1053A000FCF740FB208840F400402080FCF71AFD09
:1053B000A8602878012818D1FCF714FDA96801F528
:1053C0007A71884211D92088002140F480402080E1
:1053D0006A88286900F022F930E0A88085F801A0E9
:1053E000DAE7208840F4804020800DF5177DBDE885
:1053F000F08F28780128F4D16878012801D06869F5
:1054000011E0A88800F57F40A880FCF755FB69698A
:10541000AA88002349440120FCF70EFBFCF702FB9D
:105420006869401C68616A889042CCD10121286972
:1054300000F0F4F8208840F40040208085F80080D7
:10544000D3E70000B801002004000020008C000811
:1054500000800008E80100200B4600210180418007
:10546000838100F10802011D1846FFF791BE00007C
:10547000F8B50E4E14460D46074600221021304660
:10548000FCF7AAFC4FF0FF30009023462A4639462D
:105490000748FDF77BFD0446012210213046FCF74A
:1054A0009BFC0CB10020F8BD0120F8BD00080140B4
:1054B0002802002010B50649044604480860084642
:1054C000FDF794FC0020207010BD0000003001406A
:1054D0002802002010B504460078012802D1204699
:1054E000FFF7E8FF084807492C2202C0211DFCF7FE
:1054F000E4F80548FDF791FC08B1002010BD01203B
:10550000207010BD003001402802002030B5044654
:10551000C1B04048FFF730FD054601213D48FFF787
:105520003FFD801C854273D384216846FCF7F7F861
:10553000802121A8FCF7F3F801213648FFF730FD60
:10554000821C69463348FFF736FD002860D09DF87D
:10555000000048B101285BD19DF8012021A90DF17F
:105560000200FFF785FF3DE02B4800214FF4007259
:1055700081604162826181629DF80220B2B1416026
:105580009DF80320B2B14FF40062C2609DF8042080
:1055900092B18022C0F820209DF80520082A13D25D
:1055A000DFE802F00C0E1026282A2C2E4FF482720F
:1055B0004260E5E7C160E9E70162EDE7C16103E050
:1055C000082200E01022C2619DF80620D2B102221A
:1055D000C0F810209DF8072002B1012141610E485A
:1055E000FFF778FF012820880FD040F480400EE0BC
:1055F0001822E8E72022E6E72822E4E73022E2E763
:105600003822E0E70161E5E702E040F40040208055
:1056100041B030BDC8010020F80100202DE9F84F4D
:10562000214CD4F800A0E368D4F804902369D4F89E
:105630000880636905460F461646FCF73DFA1B488D
:1056400069468460002000901848FCF797F952469C
:10565000002321460220FCF7EFF94A460023211DD2
:105660000220FCF7E9F910494246002308310220E4
:10567000FCF7E2F90C492A4600230C310220FCF722
:10568000DBF909493A46002310310220FCF7D4F92E
:1056900005493246002314310220FCF7CDF9FCF70E
:1056A000C1F9BDE8F88F000000100008E8010020F3
:1056B0000122D1030148FCF78FBB0000000C014020
:1056C00000224FF400410148FCF786BB000C01406A
:1056D00010B5FFF7EDFF0A20FFF7CEFCBDE8104044
:1056E000FFF7EEBF2DE9F0410546ADF53A7D634881
:1056F000FFF742FC072822D300216048FFF750FC47
:10570000552804D001215D48FFF70FFC17E0012167
:105710005A48FFF745FCAA28F4D103215748FFF760
:105720003FFC044604215548FFF73AFC00EB0420F7
:1057300084B25248FFF720FCE61DB04204D200209C
:105740000DF53A7DBDE8F081224605214B48FFF773
:10575000F7FB8046601D81B24848FFF721FC0746F1
:10576000A01D81B24548FFF71BFC00EB072081B26A
:105770008845C7D102214148FFF712FC80464FF40B
:1057800016716846FBF7CBFF0027842196A8B797D0
:10579000FBF7C5FFB897B8F1050FB3D2DFE808F003
:1057A000030C293C540007213448FFF7BEFB28882E
:1057B00040F4004028805EE0B2B269462F48FFF70F
:1057C000FAFB9DF805008DF8DC02A41E200A8DF876
:1057D000DD028DF8DE429DF806008DF8DF0204221E
:1057E000B7A92748FFF711FCA2B225480DF1070120
:1057F0003FE005212148FFF7D3FB48B105211F48B1
:10580000FFF7CEFB012887D1288840F0020011E085
:10581000288840F001000DE005211848FFF7C0FB83
:1058200070B105211548FFF7BBFB0128A1D12888DD
:1058300040F00800288008211048FFF776FB1AE0A6
:10584000288840F00400F5E7B2B296A90B48FFF7AC
:10585000B2FB9DF85D028DF8E002641E8DF8E14216
:105860000222B8A90748FFF7D0FBA2B20DF25E21D1
:105870000448FFF7CAFB012062E70000A8010020EE
:10588000B8010020C801002038B504460088000493
:105890000AD500208DF8000001216846FBF7CAFFF9
:1058A0002088C0F30E002080208840040AD5FF2005
:1058B0008DF8000001216846FBF7BCFF208820F42A
:1058C0008040208038BD0102020304050607080954
:1058D0000A0B0C0D0E0F101000000000000000005D
:1058E0000102030406070809085900080000002007
:1058F000A801000028150008CC590008A8010020C4
:105900001829000084150008012413D53B1408054C
:105910003C1B0811041A39041A65041AB5141AE15B
:10592000041704030904120114020202164083043E
:105930004057260201020301031A1A0313E5171B3D
:1059400008DF041ADB041309181A082F11821053F8
:10595000127A130A0632022A401C1C09024357110C
:1059600025C03209041B01020B1305241610010582
:105970002401100901042402020524061701070569
:105980008203081C1009048D320A1D070501024319
:105990002C070581070938442A40072A8107112B63
:1059A0000907440A3B04441341391408A738140872
:1059B000293A42081AEB0C1A33041A7904C11A293D
:0C59C000281A1D041A35041A11040000F6
:04000005080014EDEE
:00000001FF
