:020000040800F2
:1000000098060020890100085B0B0008390B0008E6
:10001000590B0008B7020008B70B000800000000E9
:100020000000000000000000000000005F0B00085E
:10003000B9020008000000005D0B0008610B000819
:10004000A3010008A3010008A3010008A301000800
:10005000A3010008A3010008A3010008A3010008F0
:10006000A3010008A3010008A3010008A3010008E0
:10007000A3010008A3010008A3010008A3010008D0
:10008000A3010008A3010008A3010008A3010008C0
:10009000A3010008A3010008A3010008A3010008B0
:1000A000A3010008A3010008A3010008A3010008A0
:1000B000A3010008A3010008A3010008A301000890
:1000C000A3010008A3010008A3010008A301000880
:1000D000A3010008A3010008A3010008A301000870
:1000E000A3010008A3010008A301000800F002F822
:1000F00000F03AF80AA090E8000C82448344AAF188
:100100000107DA4501D100F02FF8AFF2090EBAE885
:100110000F0013F0010F18BFFB1A43F0010318473B
:100120000C0D00002C0D0000103A24BF78C878C1D7
:10013000FAD8520724BF30C830C144BF04680C60ED
:10014000704700000023002400250026103A28BF35
:1001500078C1FBD8520728BF30C148BF0B60704739
:100160001FB51FBD10B510BD00F06BF81146FFF7AD
:10017000F7FF00F05DFD00F089F803B4FFF7F2FF30
:1001800003BC00F091F80000094880470948004787
:10019000FEE7FEE7FEE7FEE7FEE7FEE7FEE7FEE737
:1001A000FEE7FEE704480549054A064B7047000094
:1001B000B50B0008ED00000898000020980600200C
:1001C0009802002098020020B2F120030AD5C2F163
:1001D000200320FA02F001FA03F321FA02F140EAC7
:1001E0000300704721FA03F04FF0000170474FF011
:1001F000000200B5134694469646203922BFA0E877
:100200000C50A0E80C50B1F12001BFF4F7AF090782
:1002100028BFA0E80C5048BF0CC05DF804EB890073
:1002200028BF40F8042B08BF704748BF20F8022BB6
:1002300011F0804F18BF00F8012B704770477047CE
:100240007047754600F02CF8AE46050069465346E7
:1002500020F00700854618B020B5FFF7A3FFBDE8E2
:1002600020404FF000064FF000074FF000084FF01D
:10027000000B21F00701AC46ACE8C009ACE8C009AE
:10028000ACE8C009ACE8C0098D46704710B504461B
:10029000AFF300802046BDE81040FFF76EBF0000BE
:1002A000004870473800002001491820ABBEFEE727
:1002B000260002007047FEE7704700000649002054
:1002C000C8610648016941F004010161016941F01A
:1002D000400101617047000018000020002002402A
:1002E000064A0021D16106490A6942F002020A6108
:1002F0004861086940F0400008617047180000201C
:1003000000200240044B0022DA61044A136943F0E2
:100310000103136101807047180000200020024093
:1003200014480022C168CB06134904D5CA6942F0BB
:100330000202CA611022C3685B0705D5CB6943F08E
:100340000103CB6142F00402C369DB0707D0CB692C
:1003500043F00403CB61C16921F00101C161A2F541
:100360008071013901D0C2607047C16921F001017B
:10037000C1617047002002401800002070B505469A
:1003800000F0E8F80646114C09E0681C07D025B1DA
:1003900000F0E0F8801BA84201D9032070BDE0689E
:1003A000C007F2D1E068800601D52020E060E06857
:1003B000C00605D4E069C00702D1E068400703D554
:1003C000FFF7AEFF012070BD002070BD002002408D
:1003D000064810B54FF0FF31016100220261C16093
:1003E000C26000F0F7F8002010BD000000100240CD
:1003F0002DE9F047054626480F460126017E0129D2
:100400000FD00121814601762868DFF888804CF200
:100410005034022808D0A2462046FFF7AFFFA8B10B
:1004200031E00220BDE8F0872046FFF7A7FF08BBB8
:100430000120FFF743FF2046FFF7A0FFD8F8101078
:10044000064621F00401C8F810101CE04FF0FF3000
:100450003860AC6811E02046FFF742FF5046FFF7D6
:100460008DFFD8F81010060021F00201C8F8101016
:1004700001D03C6007E004F58064D5E9020100EB9F
:100480008120A042E7D8002189F818103046C9E73A
:1004900018000020002002400348016941F080015B
:1004A0000161002070470000002002402DE9F05F4C
:1004B00007461C4888460024017E15461E46012931
:1004C00009D00121814601764CF2503A5046FFF79F
:1004D00055FF18B122E00220BDE8F09F012F02D0A5
:1004E000022F00D00427D346DFF83CA02201284683
:1004F0003146FFF769FE81B208EB4400FFF702FFC7
:100500005846FFF73BFFDAF8102022F00102CAF844
:10051000102018B9641CE4B2BC42E7D3002289F869
:100520001820D9E7180000200020024006490020CA
:100530000A69120607D5054A4A60054A4A600969F0
:10054000090600D5012070470020024023016745BD
:10055000AB89EFCD0148806870470000040000209F
:1005600002488168027811448160704704000020CD
:10057000074810B5016841F010010160032000F048
:1005800069F80F2000F006F800F026F8002010BDF2
:100590000020024070B50D4D04464FF47A71287862
:1005A000B1FBF0F00A490968B1FBF0F000F0B0FAD5
:1005B00048B9102C07D200222146501E00F02AF81C
:1005C00000206C6070BD012070BD000004000020A0
:1005D00010000020704700000C4808B5816941F008
:1005E00001018161816901F001010091C16941F05E
:1005F0008051C161C06900F080500090044841689A
:1006000021F0E06141F00071416008BD001002403E
:1006100000000140F0B40E4B1B680C46C3F30223EC
:10062000C3F10705042D00D90425191D072901D29E
:10063000002300E0DB1E012606FA05F1491E2140D9
:1006400099409E40761E16403143F0BC00F0B4BA8B
:100650000CED00E0064900F0070208684FF6FF03C2
:10066000184040EA0220034A104308607047000027
:100670000CED00E00000FA052DE9F0470F460500FB
:1006800061D0434E306800F00700B84209D23068AC
:1006900020F0070038433060306800F00700B842AF
:1006A00051D128683B4C810712D5400703D56068BB
:1006B00040F4E06060602878000703D5606840F48B
:1006C000605060606068A96820F0F00008436060D6
:1006D0002878C00728D06868012810D0216802282F
:1006E00010D0890700292EDA616821F00301014347
:1006F0006160FFF72FFF804641F288390DE02168E5
:100700008903EFE78901EDE7FFF724FFA0EB08017C
:10071000494502D90320BDE8F0876068696800F0A8
:100720000C00B0EB810FEFD1306800F00700B84249
:100730000BD9306820F0070038433060306800F093
:100740000700B84201D00120E5E72878400705D529
:100750006068E96820F4E06008436060287800077A
:1007600006D56068296920F4605040EAC1006060E5
:1007700000F018F86168084AC1F30311515CC840E1
:100780000649086006480068FFF704FF0020C2E73A
:1007900000200240001002401A0E00081000002045
:1007A000080000200E4A51680E4801F00C03042B8B
:1007B00011D0082B0FD10C48C1F38343C903C05C8F
:1007C0000AD55168084AC1F34041921E515C054A5E
:1007D0005043B0FBF1F070470449484370470000B4
:1007E0000010024000127A000A0E000800093D00C5
:1007F0002DE9F84F040070D02078C04DC00749D0D3
:100800006868C0F38100012807D06868C0F38100E0
:10081000022809D16868C00306D52868800339D545
:1008200060680028E7D035E06068B0F5803F0BD005
:1008300010B1B0F5A02F11D0286820F480302860C6
:10084000286820F4802002E0286840F48030286086
:10085000606890B1FFF77EFE06460AE0286840F423
:1008600080202860F0E700BFFFF774FE801B64283B
:1008700073D828688003F7D50CE0FFF76BFE0646B7
:1008800005E000BFFFF766FE801B6428F0D82868EB
:100890008003F7D420789A4E80074FF001094FF07B
:1008A000000839D5686810F00C0F07D06868C0F3ED
:1008B0008100022809D16868C00306D4286880072F
:1008C00014D52069012808D110E02069B0B1C6F81C
:1008D0000090FFF73FFE074605E00AE1FFF73AFE0A
:1008E000C01B0228C4D828688007F7D5286861692A
:1008F00020F0F80040EAC10028600DE0C6F8008052
:10090000FFF728FE074604E0FFF724FEC01B02287D
:1009100023D828688007F7D4207800072CD5794899
:10092000A169D9B1C0F80090FFF714FE074604E0B2
:10093000FFF710FEC01B02280FD8686A8007F7D5A2
:1009400071484FF4FA510068B0FBF1F0009000BF1D
:100950000098411E0091FAD20EE080E0C0F80080BD
:10096000FFF7F8FD074604E0FFF7F4FDC01B02287F
:1009700075D8686A8007F7D42078400760D5E869A1
:100980000027C00008D4E86940F08050E861E869B9
:10099000012700F0805000905C480168C90513D41D
:1009A0000168834641F480710160FFF7D3FD824600
:1009B00006E000BFFFF7CEFDA0EB0A0064284ED88A
:1009C000DBF80000C005F5D5E06801280AD008B1C1
:1009D000052813D0286A20F001002862286A20F038
:1009E000040002E0286A40F001002862E06841F259
:1009F000883B98B1FFF7AEFD82460BE0286A40F0D5
:100A000004002862EEE700BFFFF7A4FDA0EB0A0197
:100A100059455AD8286A8007F6D50CE0FFF79AFDA9
:100A2000824605E0FFF796FDA0EB0A0159454CD838
:100A3000286A8007F6D41FB1E86920F08050E86189
:100A4000E06988B36968C1F38101022944D00228B2
:100A5000C6F8608004D0FFF77DFD044638E034E03E
:100A6000FFF778FD074604E0FFF774FDC01B02287E
:100A70002BD828688001F7D4206AB0F5803F05D1D3
:100A80006868A16820F4003008436860D4E9080170
:100A90000843696821F4741108436860C6F86090DF
:100AA000FFF758FD044606E025E000BFFFF752FDC2
:100AB000001B022809D828688001F7D51BE000BF79
:100AC000FFF748FD001B022802D90320BDE8F88F7C
:100AD00028688001F4D40EE00128F7D06868226A03
:100AE00000F48031914204D1616A00F470108842B0
:100AF00001D00120EAE70020E8E7000000100240F2
:100B00000000424280044242100000200070004079
:100B100010B5401EB0F1807F01D3012010BD4FF011
:100B2000E02460610F21601700F046F80020A0610A
:100B300007202061002010BDFEE70000054808B531
:100B4000816941F004018161806900F00400009036
:100B500008BD000000100240FEE7FEE77047704746
:100B6000FFF7FEBC10B590B028216846FFF73FFBA9
:100B700014210AA8FFF73BFB0220009001200490FB
:100B800010200024059007946846FFF731FE08B155
:100B900072B6FEE70F20CDE90A040C940D940021F3
:100BA0000AA80E94FFF768FD002801D072B6FEE790
:100BB00010B010BD7047FEE70907090E002804DBDE
:100BC00000F1E02080F80014704700F00F0000F101
:100BD000E02080F8141D704770B50668044645682B
:100BE00072B600204FF0E02108614861886101463B
:100BF000421E880000F1E020C0F88021C0F8802269
:100C0000491C0829F5D3FFF7E3FB08480460BFF34C
:100C10004F8FBFF36F8F86F30888BFF34F8FBFF3FB
:100C20006F8F62B6AC46BDE87040604708ED00E0EB
:100C300086B0FFF79DFCFFF795FFFFF77FFF6E4E35
:100C40003268F56871683069B3687469DFF8ACA11F
:100C5000032808D0012802D001297DD0CBE001294A
:100C600001D1AA42F9D0FFF761FC00200127CDE9AC
:100C700002070190B046CDE9046701A902A8FFF779
:100C8000B7FB2A46002331460220FFF70FFC5A49E2
:100C900003220023091D0220FFF708FC56492246C3
:100CA000002308310220FFF701FC53492A460023A4
:100CB0000C310220FFF7FAFB4F49032200231031C9
:100CC0000220FFF7F3FB4C49224600231431022097
:100CD000FFF7ECFB07EB942000264FF4806BC7B2C4
:100CE000C14618E000205A464FEA090100EB86236E
:100CF0000B4493F80034FF2B07D00AEB86200490B6
:100D000001A902A8FFF774FB03E0401C80B29042E7
:100D1000ECD3761CF6B21D2F01D8384600E01D201A
:100D2000B042DFD83648D346824604F001000026A0
:100D3000344F00EB54080DE00AEB4600B0F8001CFD
:100D400039800BEB46013A8800230120FFF7AEFB08
:100D5000761CB6B2B04500E04AE0EDD80027384630
:100D60004E4651460BE042009319B3F800340A4452
:100D7000B2F8002C934200D00127401C80B280457D
:100D8000F1D801A902A80496FFF732FB2A460023F6
:100D900031460220FFF78AFB37B3002216490023B1
:100DA000091D0220FFF782FB134922460023083168
:100DB0000220FFF77BFB10492A4600230C3102205A
:100DC000FFF774FB0C490122002310310220FFF7CA
:100DD0006DFB09492246002314310220FFF766FB10
:100DE000FFF75AFB17B106E00122D7E7584600E0AB
:100DF0005046FFF7F1FEFEE700100008001400085F
:100E0000008000080000002001020203040506071C
:100E100008090A0B0C0D0E0F101000000000000056
:100E20000000010203040607080900004C0E000838
:100E3000000000201400000028010008600E0008D7
:100E40001400002084060000440100080000000097
:100E500001000000100000000000000000127A00F5
:04000005080000ED02
:00000001FF
